{
  "contractName": "ArticleStorage",
  "abi": [
    {
      "inputs": [
        {
          "internalType": "address",
          "name": "",
          "type": "address"
        },
        {
          "internalType": "uint256",
          "name": "",
          "type": "uint256"
        }
      ],
      "name": "Generalopt",
      "outputs": [
        {
          "internalType": "int256",
          "name": "",
          "type": "int256"
        }
      ],
      "stateMutability": "view",
      "type": "function"
    },
    {
      "inputs": [
        {
          "internalType": "uint256",
          "name": "",
          "type": "uint256"
        }
      ],
      "name": "general",
      "outputs": [
        {
          "internalType": "uint256",
          "name": "index",
          "type": "uint256"
        },
        {
          "internalType": "address",
          "name": "owner",
          "type": "address"
        },
        {
          "internalType": "string",
          "name": "image",
          "type": "string"
        },
        {
          "internalType": "string",
          "name": "content",
          "type": "string"
        },
        {
          "internalType": "uint256",
          "name": "visibleWords",
          "type": "uint256"
        },
        {
          "internalType": "uint256",
          "name": "price",
          "type": "uint256"
        },
        {
          "internalType": "uint256",
          "name": "dateUploaded",
          "type": "uint256"
        },
        {
          "internalType": "uint256",
          "name": "aiRating",
          "type": "uint256"
        },
        {
          "internalType": "uint256",
          "name": "userRating",
          "type": "uint256"
        },
        {
          "internalType": "int256",
          "name": "latitude",
          "type": "int256"
        },
        {
          "internalType": "int256",
          "name": "longitude",
          "type": "int256"
        },
        {
          "internalType": "uint256",
          "name": "noOfUserRate",
          "type": "uint256"
        }
      ],
      "stateMutability": "view",
      "type": "function"
    },
    {
      "inputs": [
        {
          "internalType": "address",
          "name": "",
          "type": "address"
        },
        {
          "internalType": "uint256",
          "name": "",
          "type": "uint256"
        }
      ],
      "name": "stockopt",
      "outputs": [
        {
          "internalType": "int256",
          "name": "",
          "type": "int256"
        }
      ],
      "stateMutability": "view",
      "type": "function"
    },
    {
      "inputs": [
        {
          "internalType": "uint256",
          "name": "",
          "type": "uint256"
        }
      ],
      "name": "stocks",
      "outputs": [
        {
          "internalType": "uint256",
          "name": "index",
          "type": "uint256"
        },
        {
          "internalType": "address",
          "name": "owner",
          "type": "address"
        },
        {
          "internalType": "string",
          "name": "image",
          "type": "string"
        },
        {
          "internalType": "string",
          "name": "content",
          "type": "string"
        },
        {
          "internalType": "uint256",
          "name": "visibleWords",
          "type": "uint256"
        },
        {
          "internalType": "uint256",
          "name": "price",
          "type": "uint256"
        },
        {
          "internalType": "uint256",
          "name": "dateUploaded",
          "type": "uint256"
        },
        {
          "internalType": "uint256",
          "name": "aiRating",
          "type": "uint256"
        },
        {
          "internalType": "uint256",
          "name": "userRating",
          "type": "uint256"
        },
        {
          "internalType": "uint256",
          "name": "startDate",
          "type": "uint256"
        },
        {
          "internalType": "uint256",
          "name": "endDate",
          "type": "uint256"
        },
        {
          "internalType": "uint256",
          "name": "noOfUserRate",
          "type": "uint256"
        }
      ],
      "stateMutability": "view",
      "type": "function"
    },
    {
      "inputs": [
        {
          "internalType": "uint256",
          "name": "index",
          "type": "uint256"
        },
        {
          "internalType": "uint256",
          "name": "rating",
          "type": "uint256"
        }
      ],
      "name": "setStockUserRating",
      "outputs": [],
      "stateMutability": "nonpayable",
      "type": "function"
    },
    {
      "inputs": [
        {
          "internalType": "uint256",
          "name": "index",
          "type": "uint256"
        },
        {
          "internalType": "uint256",
          "name": "rating",
          "type": "uint256"
        }
      ],
      "name": "setGeneralUserRating",
      "outputs": [],
      "stateMutability": "nonpayable",
      "type": "function"
    },
    {
      "inputs": [
        {
          "internalType": "string[]",
          "name": "_tags",
          "type": "string[]"
        },
        {
          "internalType": "string",
          "name": "_image",
          "type": "string"
        },
        {
          "internalType": "string",
          "name": "_content",
          "type": "string"
        },
        {
          "internalType": "uint256",
          "name": "_visibleWords",
          "type": "uint256"
        },
        {
          "internalType": "uint256",
          "name": "_price",
          "type": "uint256"
        },
        {
          "internalType": "uint256",
          "name": "_aiRating",
          "type": "uint256"
        },
        {
          "internalType": "uint256",
          "name": "_userRating",
          "type": "uint256"
        },
        {
          "internalType": "uint256",
          "name": "_startDate",
          "type": "uint256"
        },
        {
          "internalType": "uint256",
          "name": "_endDate",
          "type": "uint256"
        }
      ],
      "name": "storeStockArticle",
      "outputs": [],
      "stateMutability": "nonpayable",
      "type": "function"
    },
    {
      "inputs": [
        {
          "internalType": "string[]",
          "name": "_tags",
          "type": "string[]"
        },
        {
          "internalType": "string",
          "name": "_image",
          "type": "string"
        },
        {
          "internalType": "string",
          "name": "_content",
          "type": "string"
        },
        {
          "internalType": "uint256",
          "name": "_visibleWords",
          "type": "uint256"
        },
        {
          "internalType": "uint256",
          "name": "_price",
          "type": "uint256"
        },
        {
          "internalType": "uint256",
          "name": "_aiRating",
          "type": "uint256"
        },
        {
          "internalType": "uint256",
          "name": "_userRating",
          "type": "uint256"
        },
        {
          "internalType": "int256",
          "name": "_latitude",
          "type": "int256"
        },
        {
          "internalType": "int256",
          "name": "_longitude",
          "type": "int256"
        }
      ],
      "name": "storeGeneralArticle",
      "outputs": [],
      "stateMutability": "nonpayable",
      "type": "function"
    },
    {
      "inputs": [
        {
          "internalType": "uint256",
          "name": "index",
          "type": "uint256"
        }
      ],
      "name": "getStockArticle",
      "outputs": [
        {
          "internalType": "uint256",
          "name": "",
          "type": "uint256"
        },
        {
          "internalType": "address",
          "name": "",
          "type": "address"
        },
        {
          "internalType": "string[]",
          "name": "",
          "type": "string[]"
        },
        {
          "internalType": "string",
          "name": "",
          "type": "string"
        },
        {
          "internalType": "string",
          "name": "",
          "type": "string"
        },
        {
          "internalType": "uint256",
          "name": "",
          "type": "uint256"
        },
        {
          "internalType": "uint256",
          "name": "",
          "type": "uint256"
        },
        {
          "internalType": "uint256",
          "name": "",
          "type": "uint256"
        },
        {
          "internalType": "uint256",
          "name": "",
          "type": "uint256"
        },
        {
          "internalType": "uint256",
          "name": "",
          "type": "uint256"
        },
        {
          "internalType": "uint256",
          "name": "",
          "type": "uint256"
        },
        {
          "internalType": "uint256",
          "name": "",
          "type": "uint256"
        }
      ],
      "stateMutability": "view",
      "type": "function"
    },
    {
      "inputs": [
        {
          "internalType": "uint256",
          "name": "index",
          "type": "uint256"
        }
      ],
      "name": "getGeneralArticle",
      "outputs": [
        {
          "internalType": "uint256",
          "name": "",
          "type": "uint256"
        },
        {
          "internalType": "address",
          "name": "",
          "type": "address"
        },
        {
          "internalType": "string[]",
          "name": "",
          "type": "string[]"
        },
        {
          "internalType": "string",
          "name": "",
          "type": "string"
        },
        {
          "internalType": "string",
          "name": "",
          "type": "string"
        },
        {
          "internalType": "uint256",
          "name": "",
          "type": "uint256"
        },
        {
          "internalType": "uint256",
          "name": "",
          "type": "uint256"
        },
        {
          "internalType": "uint256",
          "name": "",
          "type": "uint256"
        },
        {
          "internalType": "uint256",
          "name": "",
          "type": "uint256"
        },
        {
          "internalType": "uint256",
          "name": "",
          "type": "uint256"
        },
        {
          "internalType": "int256",
          "name": "",
          "type": "int256"
        },
        {
          "internalType": "int256",
          "name": "",
          "type": "int256"
        }
      ],
      "stateMutability": "view",
      "type": "function"
    },
    {
      "inputs": [
        {
          "internalType": "uint256",
          "name": "index",
          "type": "uint256"
        }
      ],
      "name": "payForStockArticle",
      "outputs": [],
      "stateMutability": "payable",
      "type": "function"
    },
    {
      "inputs": [
        {
          "internalType": "uint256",
          "name": "index",
          "type": "uint256"
        }
      ],
      "name": "payForGeneralArticle",
      "outputs": [],
      "stateMutability": "payable",
      "type": "function"
    },
    {
      "inputs": [
        {
          "internalType": "address",
          "name": "user",
          "type": "address"
        }
      ],
      "name": "getStockOpt",
      "outputs": [
        {
          "internalType": "int256[]",
          "name": "",
          "type": "int256[]"
        }
      ],
      "stateMutability": "view",
      "type": "function"
    },
    {
      "inputs": [
        {
          "internalType": "address",
          "name": "user",
          "type": "address"
        }
      ],
      "name": "getGeneralOpt",
      "outputs": [
        {
          "internalType": "int256[]",
          "name": "",
          "type": "int256[]"
        }
      ],
      "stateMutability": "view",
      "type": "function"
    },
    {
      "inputs": [],
      "name": "getAllStockArticles",
      "outputs": [
        {
          "components": [
            {
              "internalType": "uint256",
              "name": "index",
              "type": "uint256"
            },
            {
              "internalType": "address",
              "name": "owner",
              "type": "address"
            },
            {
              "internalType": "string[]",
              "name": "tags",
              "type": "string[]"
            },
            {
              "internalType": "string",
              "name": "image",
              "type": "string"
            },
            {
              "internalType": "string",
              "name": "content",
              "type": "string"
            },
            {
              "internalType": "uint256",
              "name": "visibleWords",
              "type": "uint256"
            },
            {
              "internalType": "uint256",
              "name": "price",
              "type": "uint256"
            },
            {
              "internalType": "uint256",
              "name": "dateUploaded",
              "type": "uint256"
            },
            {
              "internalType": "uint256",
              "name": "aiRating",
              "type": "uint256"
            },
            {
              "internalType": "uint256",
              "name": "userRating",
              "type": "uint256"
            },
            {
              "internalType": "uint256",
              "name": "startDate",
              "type": "uint256"
            },
            {
              "internalType": "uint256",
              "name": "endDate",
              "type": "uint256"
            },
            {
              "internalType": "uint256",
              "name": "noOfUserRate",
              "type": "uint256"
            }
          ],
          "internalType": "struct ArticleStorage.StockArticle[]",
          "name": "",
          "type": "tuple[]"
        }
      ],
      "stateMutability": "view",
      "type": "function"
    },
    {
      "inputs": [],
      "name": "getAllGeneralArticles",
      "outputs": [
        {
          "components": [
            {
              "internalType": "uint256",
              "name": "index",
              "type": "uint256"
            },
            {
              "internalType": "address",
              "name": "owner",
              "type": "address"
            },
            {
              "internalType": "string[]",
              "name": "tags",
              "type": "string[]"
            },
            {
              "internalType": "string",
              "name": "image",
              "type": "string"
            },
            {
              "internalType": "string",
              "name": "content",
              "type": "string"
            },
            {
              "internalType": "uint256",
              "name": "visibleWords",
              "type": "uint256"
            },
            {
              "internalType": "uint256",
              "name": "price",
              "type": "uint256"
            },
            {
              "internalType": "uint256",
              "name": "dateUploaded",
              "type": "uint256"
            },
            {
              "internalType": "uint256",
              "name": "aiRating",
              "type": "uint256"
            },
            {
              "internalType": "uint256",
              "name": "userRating",
              "type": "uint256"
            },
            {
              "internalType": "int256",
              "name": "latitude",
              "type": "int256"
            },
            {
              "internalType": "int256",
              "name": "longitude",
              "type": "int256"
            },
            {
              "internalType": "uint256",
              "name": "noOfUserRate",
              "type": "uint256"
            }
          ],
          "internalType": "struct ArticleStorage.GeneralArticle[]",
          "name": "",
          "type": "tuple[]"
        }
      ],
      "stateMutability": "view",
      "type": "function"
    }
  ],
  "bytecode": "0x6080604052348015600e575f80fd5b506136ca8061001c5f395ff3fe6080604052600436106100f2575f3560e01c806381680b7411610089578063c3a27c2311610058578063c3a27c23146103a4578063ee06aaec146103c0578063f5ffa275146103dc578063febf435014610406576100f2565b806381680b74146102cf5780639ad449aa146102f75780639ae3eda91461033e578063b155027c14610368576100f2565b8063464f3696116100c5578063464f3696146101fc57806357152d45146102245780637d28e60c1461026b578063809c69ee14610293576100f2565b806317c0a634146100f6578063226b876c1461013257806323dc945b146101795780634425d74e146101b5575b5f80fd5b348015610101575f80fd5b5061011c600480360381019061011791906120a7565b61042e565b6040516101299190612192565b60405180910390f35b34801561013d575f80fd5b50610158600480360381019061015391906121e5565b6104c1565b6040516101709c9b9a9998979695949392919061229e565b60405180910390f35b348015610184575f80fd5b5061019f600480360381019061019a91906120a7565b610656565b6040516101ac9190612192565b60405180910390f35b3480156101c0575f80fd5b506101db60048036038101906101d691906121e5565b6106e9565b6040516101f39c9b9a99989796959493929190612476565b60405180910390f35b348015610207575f80fd5b50610222600480360381019061021d9190612543565b610a76565b005b34801561022f575f80fd5b5061024a600480360381019061024591906121e5565b610bb7565b6040516102629c9b9a99989796959493929190612581565b60405180910390f35b348015610276575f80fd5b50610291600480360381019061028c9190612886565b610f42565b005b34801561029e575f80fd5b506102b960048036038101906102b4919061299e565b61113f565b6040516102c691906129dc565b60405180910390f35b3480156102da575f80fd5b506102f560048036038101906102f09190612543565b61116a565b005b348015610302575f80fd5b5061031d600480360381019061031891906121e5565b6112a7565b6040516103359c9b9a999897969594939291906129f5565b60405180910390f35b348015610349575f80fd5b5061035261143d565b60405161035f9190612d3b565b60405180910390f35b348015610373575f80fd5b5061038e6004803603810190610389919061299e565b61173c565b60405161039b91906129dc565b60405180910390f35b6103be60048036038101906103b991906121e5565b611767565b005b6103da60048036038101906103d591906121e5565b6118ed565b005b3480156103e7575f80fd5b506103f0611a71565b6040516103fd9190612f3a565b60405180910390f35b348015610411575f80fd5b5061042c60048036038101906104279190612f5a565b611d6f565b005b606060035f8373ffffffffffffffffffffffffffffffffffffffff1673ffffffffffffffffffffffffffffffffffffffff1681526020019081526020015f208054806020026020016040519081016040528092919081815260200182805480156104b557602002820191905f5260205f20905b8154815260200190600101908083116104a1575b50505050509050919050565b5f81815481106104cf575f80fd5b905f5260205f2090600d02015f91509050805f015490806001015f9054906101000a900473ffffffffffffffffffffffffffffffffffffffff16908060030180546105199061309f565b80601f01602080910402602001604051908101604052809291908181526020018280546105459061309f565b80156105905780601f1061056757610100808354040283529160200191610590565b820191905f5260205f20905b81548152906001019060200180831161057357829003601f168201915b5050505050908060040180546105a59061309f565b80601f01602080910402602001604051908101604052809291908181526020018280546105d19061309f565b801561061c5780601f106105f35761010080835404028352916020019161061c565b820191905f5260205f20905b8154815290600101906020018083116105ff57829003601f168201915b50505050509080600501549080600601549080600701549080600801549080600901549080600a01549080600b01549080600c015490508c565b606060025f8373ffffffffffffffffffffffffffffffffffffffff1673ffffffffffffffffffffffffffffffffffffffff1681526020019081526020015f208054806020026020016040519081016040528092919081815260200182805480156106dd57602002820191905f5260205f20905b8154815260200190600101908083116106c9575b50505050509050919050565b5f8060608060605f805f805f805f6001805490508d1061073e576040517f08c379a000000000000000000000000000000000000000000000000000000000815260040161073590613119565b60405180910390fd5b5f60018e8154811061075357610752613137565b5b905f5260205f2090600d0201604051806101a00160405290815f8201548152602001600182015f9054906101000a900473ffffffffffffffffffffffffffffffffffffffff1673ffffffffffffffffffffffffffffffffffffffff1673ffffffffffffffffffffffffffffffffffffffff16815260200160028201805480602002602001604051908101604052809291908181526020015f905b82821015610895578382905f5260205f2001805461080a9061309f565b80601f01602080910402602001604051908101604052809291908181526020018280546108369061309f565b80156108815780601f1061085857610100808354040283529160200191610881565b820191905f5260205f20905b81548152906001019060200180831161086457829003601f168201915b5050505050815260200190600101906107ed565b5050505081526020016003820180546108ad9061309f565b80601f01602080910402602001604051908101604052809291908181526020018280546108d99061309f565b80156109245780601f106108fb57610100808354040283529160200191610924565b820191905f5260205f20905b81548152906001019060200180831161090757829003601f168201915b5050505050815260200160048201805461093d9061309f565b80601f01602080910402602001604051908101604052809291908181526020018280546109699061309f565b80156109b45780601f1061098b576101008083540402835291602001916109b4565b820191905f5260205f20905b81548152906001019060200180831161099757829003601f168201915b505050505081526020016005820154815260200160068201548152602001600782015481526020016008820154815260200160098201548152602001600a8201548152602001600b8201548152602001600c820154815250509050805f015181602001518260400151836060015184608001518560a001518660c001518760e001518861010001518961012001518a61014001518b61016001519c509c509c509c509c509c509c509c509c509c509c509c505091939597999b5091939597999b565b6001805490508210610abd576040517f08c379a0000000000000000000000000000000000000000000000000000000008152600401610ab4906131d4565b60405180910390fd5b6001808381548110610ad257610ad1613137565b5b905f5260205f2090600d0201600c0154610aec919061321f565b8160018481548110610b0157610b00613137565b5b905f5260205f2090600d0201600c015460018581548110610b2557610b24613137565b5b905f5260205f2090600d020160090154610b3f9190613252565b610b49919061321f565b610b5391906132c0565b60018381548110610b6757610b66613137565b5b905f5260205f2090600d0201600901819055506001808381548110610b8f57610b8e613137565b5b905f5260205f2090600d0201600c015f828254610bac919061321f565b925050819055505050565b5f8060608060605f805f805f805f80805490508d10610c0b576040517f08c379a0000000000000000000000000000000000000000000000000000000008152600401610c029061333a565b60405180910390fd5b5f808e81548110610c1f57610c1e613137565b5b905f5260205f2090600d0201604051806101a00160405290815f8201548152602001600182015f9054906101000a900473ffffffffffffffffffffffffffffffffffffffff1673ffffffffffffffffffffffffffffffffffffffff1673ffffffffffffffffffffffffffffffffffffffff16815260200160028201805480602002602001604051908101604052809291908181526020015f905b82821015610d61578382905f5260205f20018054610cd69061309f565b80601f0160208091040260200160405190810160405280929190818152602001828054610d029061309f565b8015610d4d5780601f10610d2457610100808354040283529160200191610d4d565b820191905f5260205f20905b815481529060010190602001808311610d3057829003601f168201915b505050505081526020019060010190610cb9565b505050508152602001600382018054610d799061309f565b80601f0160208091040260200160405190810160405280929190818152602001828054610da59061309f565b8015610df05780601f10610dc757610100808354040283529160200191610df0565b820191905f5260205f20905b815481529060010190602001808311610dd357829003601f168201915b50505050508152602001600482018054610e099061309f565b80601f0160208091040260200160405190810160405280929190818152602001828054610e359061309f565b8015610e805780601f10610e5757610100808354040283529160200191610e80565b820191905f5260205f20905b815481529060010190602001808311610e6357829003601f168201915b505050505081526020016005820154815260200160068201548152602001600782015481526020016008820154815260200160098201548152602001600a8201548152602001600b8201548152602001600c820154815250509050805f015181602001518260400151836060015184608001518560a001518660c001518760e001518861010001518961012001518a61014001518b61016001519c509c509c509c509c509c509c509c509c509c509c509c505091939597999b5091939597999b565b5f604051806101a0016040528060018054905081526020013373ffffffffffffffffffffffffffffffffffffffff1681526020018b81526020018a81526020018981526020018881526020018781526020014281526020018681526020018581526020018481526020018381526020015f8152509050600181908060018154018082558091505060019003905f5260205f2090600d02015f909190919091505f820151815f01556020820151816001015f6101000a81548173ffffffffffffffffffffffffffffffffffffffff021916908373ffffffffffffffffffffffffffffffffffffffff160217905550604082015181600201908051906020019061104b929190611f6a565b50606082015181600301908161106191906134f5565b50608082015181600401908161107791906134f5565b5060a0820151816005015560c0820151816006015560e082015181600701556101008201518160080155610120820151816009015561014082015181600a015561016082015181600b015561018082015181600c0155505060035f3373ffffffffffffffffffffffffffffffffffffffff1673ffffffffffffffffffffffffffffffffffffffff1681526020019081526020015f20815f0151908060018154018082558091505060019003905f5260205f20015f909190919091505550505050505050505050565b6002602052815f5260405f208181548110611158575f80fd5b905f5260205f20015f91509150505481565b5f8054905082106111b0576040517f08c379a00000000000000000000000000000000000000000000000000000000081526004016111a79061360e565b60405180910390fd5b60015f83815481106111c5576111c4613137565b5b905f5260205f2090600d0201600c01546111df919061321f565b815f84815481106111f3576111f2613137565b5b905f5260205f2090600d0201600c01545f858154811061121657611215613137565b5b905f5260205f2090600d0201600901546112309190613252565b61123a919061321f565b61124491906132c0565b5f838154811061125757611256613137565b5b905f5260205f2090600d02016009018190555060015f838154811061127f5761127e613137565b5b905f5260205f2090600d0201600c015f82825461129c919061321f565b925050819055505050565b600181815481106112b6575f80fd5b905f5260205f2090600d02015f91509050805f015490806001015f9054906101000a900473ffffffffffffffffffffffffffffffffffffffff16908060030180546113009061309f565b80601f016020809104026020016040519081016040528092919081815260200182805461132c9061309f565b80156113775780601f1061134e57610100808354040283529160200191611377565b820191905f5260205f20905b81548152906001019060200180831161135a57829003601f168201915b50505050509080600401805461138c9061309f565b80601f01602080910402602001604051908101604052809291908181526020018280546113b89061309f565b80156114035780601f106113da57610100808354040283529160200191611403565b820191905f5260205f20905b8154815290600101906020018083116113e657829003601f168201915b50505050509080600501549080600601549080600701549080600801549080600901549080600a01549080600b01549080600c015490508c565b60606001805480602002602001604051908101604052809291908181526020015f905b82821015611733578382905f5260205f2090600d0201604051806101a00160405290815f8201548152602001600182015f9054906101000a900473ffffffffffffffffffffffffffffffffffffffff1673ffffffffffffffffffffffffffffffffffffffff1673ffffffffffffffffffffffffffffffffffffffff16815260200160028201805480602002602001604051908101604052809291908181526020015f905b828210156115ac578382905f5260205f200180546115219061309f565b80601f016020809104026020016040519081016040528092919081815260200182805461154d9061309f565b80156115985780601f1061156f57610100808354040283529160200191611598565b820191905f5260205f20905b81548152906001019060200180831161157b57829003601f168201915b505050505081526020019060010190611504565b5050505081526020016003820180546115c49061309f565b80601f01602080910402602001604051908101604052809291908181526020018280546115f09061309f565b801561163b5780601f106116125761010080835404028352916020019161163b565b820191905f5260205f20905b81548152906001019060200180831161161e57829003601f168201915b505050505081526020016004820180546116549061309f565b80601f01602080910402602001604051908101604052809291908181526020018280546116809061309f565b80156116cb5780601f106116a2576101008083540402835291602001916116cb565b820191905f5260205f20905b8154815290600101906020018083116116ae57829003601f168201915b505050505081526020016005820154815260200160068201548152602001600782015481526020016008820154815260200160098201548152602001600a8201548152602001600b8201548152602001600c8201548152505081526020019060010190611460565b50505050905090565b6003602052815f5260405f208181548110611755575f80fd5b905f5260205f20015f91509150505481565b60018054905081106117ae576040517f08c379a00000000000000000000000000000000000000000000000000000000081526004016117a590613119565b60405180910390fd5b5f600182815481106117c3576117c2613137565b5b905f5260205f2090600d020190508060060154341015611818576040517f08c379a000000000000000000000000000000000000000000000000000000000815260040161180f90613676565b60405180910390fd5b5f816001015f9054906101000a900473ffffffffffffffffffffffffffffffffffffffff1690508073ffffffffffffffffffffffffffffffffffffffff166108fc836006015490811502906040515f60405180830381858888f19350505050158015611886573d5f803e3d5ffd5b5060035f3373ffffffffffffffffffffffffffffffffffffffff1673ffffffffffffffffffffffffffffffffffffffff1681526020019081526020015f2083908060018154018082558091505060019003905f5260205f20015f9091909190915055505050565b5f805490508110611933576040517f08c379a000000000000000000000000000000000000000000000000000000000815260040161192a9061333a565b60405180910390fd5b5f80828154811061194757611946613137565b5b905f5260205f2090600d02019050806006015434101561199c576040517f08c379a000000000000000000000000000000000000000000000000000000000815260040161199390613676565b60405180910390fd5b5f816001015f9054906101000a900473ffffffffffffffffffffffffffffffffffffffff1690508073ffffffffffffffffffffffffffffffffffffffff166108fc836006015490811502906040515f60405180830381858888f19350505050158015611a0a573d5f803e3d5ffd5b5060025f3373ffffffffffffffffffffffffffffffffffffffff1673ffffffffffffffffffffffffffffffffffffffff1681526020019081526020015f2083908060018154018082558091505060019003905f5260205f20015f9091909190915055505050565b60605f805480602002602001604051908101604052809291908181526020015f905b82821015611d66578382905f5260205f2090600d0201604051806101a00160405290815f8201548152602001600182015f9054906101000a900473ffffffffffffffffffffffffffffffffffffffff1673ffffffffffffffffffffffffffffffffffffffff1673ffffffffffffffffffffffffffffffffffffffff16815260200160028201805480602002602001604051908101604052809291908181526020015f905b82821015611bdf578382905f5260205f20018054611b549061309f565b80601f0160208091040260200160405190810160405280929190818152602001828054611b809061309f565b8015611bcb5780601f10611ba257610100808354040283529160200191611bcb565b820191905f5260205f20905b815481529060010190602001808311611bae57829003601f168201915b505050505081526020019060010190611b37565b505050508152602001600382018054611bf79061309f565b80601f0160208091040260200160405190810160405280929190818152602001828054611c239061309f565b8015611c6e5780601f10611c4557610100808354040283529160200191611c6e565b820191905f5260205f20905b815481529060010190602001808311611c5157829003601f168201915b50505050508152602001600482018054611c879061309f565b80601f0160208091040260200160405190810160405280929190818152602001828054611cb39061309f565b8015611cfe5780601f10611cd557610100808354040283529160200191611cfe565b820191905f5260205f20905b815481529060010190602001808311611ce157829003601f168201915b505050505081526020016005820154815260200160068201548152602001600782015481526020016008820154815260200160098201548152602001600a8201548152602001600b8201548152602001600c8201548152505081526020019060010190611a93565b50505050905090565b5f604051806101a001604052805f8054905081526020013373ffffffffffffffffffffffffffffffffffffffff1681526020018b81526020018a81526020018981526020018881526020018781526020014281526020018681526020018581526020018481526020018381526020015f81525090505f81908060018154018082558091505060019003905f5260205f2090600d02015f909190919091505f820151815f01556020820151816001015f6101000a81548173ffffffffffffffffffffffffffffffffffffffff021916908373ffffffffffffffffffffffffffffffffffffffff1602179055506040820151816002019080519060200190611e76929190611f6a565b506060820151816003019081611e8c91906134f5565b506080820151816004019081611ea291906134f5565b5060a0820151816005015560c0820151816006015560e082015181600701556101008201518160080155610120820151816009015561014082015181600a015561016082015181600b015561018082015181600c0155505060025f3373ffffffffffffffffffffffffffffffffffffffff1673ffffffffffffffffffffffffffffffffffffffff1681526020019081526020015f20815f0151908060018154018082558091505060019003905f5260205f20015f909190919091505550505050505050505050565b828054828255905f5260205f20908101928215611fb0579160200282015b82811115611faf578251829081611f9f91906134f5565b5091602001919060010190611f88565b5b509050611fbd9190611fc1565b5090565b5b80821115611fe0575f8181611fd79190611fe4565b50600101611fc2565b5090565b508054611ff09061309f565b5f825580601f10612001575061201e565b601f0160209004905f5260205f209081019061201d9190612021565b5b50565b5b80821115612038575f815f905550600101612022565b5090565b5f604051905090565b5f80fd5b5f80fd5b5f73ffffffffffffffffffffffffffffffffffffffff82169050919050565b5f6120768261204d565b9050919050565b6120868161206c565b8114612090575f80fd5b50565b5f813590506120a18161207d565b92915050565b5f602082840312156120bc576120bb612045565b5b5f6120c984828501612093565b91505092915050565b5f81519050919050565b5f82825260208201905092915050565b5f819050602082019050919050565b5f819050919050565b61210d816120fb565b82525050565b5f61211e8383612104565b60208301905092915050565b5f602082019050919050565b5f612140826120d2565b61214a81856120dc565b9350612155836120ec565b805f5b8381101561218557815161216c8882612113565b97506121778361212a565b925050600181019050612158565b5085935050505092915050565b5f6020820190508181035f8301526121aa8184612136565b905092915050565b5f819050919050565b6121c4816121b2565b81146121ce575f80fd5b50565b5f813590506121df816121bb565b92915050565b5f602082840312156121fa576121f9612045565b5b5f612207848285016121d1565b91505092915050565b612219816121b2565b82525050565b6122288161206c565b82525050565b5f81519050919050565b5f82825260208201905092915050565b8281835e5f83830152505050565b5f601f19601f8301169050919050565b5f6122708261222e565b61227a8185612238565b935061228a818560208601612248565b61229381612256565b840191505092915050565b5f610180820190506122b25f83018f612210565b6122bf602083018e61221f565b81810360408301526122d1818d612266565b905081810360608301526122e5818c612266565b90506122f4608083018b612210565b61230160a083018a612210565b61230e60c0830189612210565b61231b60e0830188612210565b612329610100830187612210565b612337610120830186612210565b612345610140830185612210565b612353610160830184612210565b9d9c50505050505050505050505050565b5f81519050919050565b5f82825260208201905092915050565b5f819050602082019050919050565b5f82825260208201905092915050565b5f6123a78261222e565b6123b1818561238d565b93506123c1818560208601612248565b6123ca81612256565b840191505092915050565b5f6123e0838361239d565b905092915050565b5f602082019050919050565b5f6123fe82612364565b612408818561236e565b93508360208202850161241a8561237e565b805f5b85811015612455578484038952815161243685826123d5565b9450612441836123e8565b925060208a0199505060018101905061241d565b50829750879550505050505092915050565b612470816120fb565b82525050565b5f6101808201905061248a5f83018f612210565b612497602083018e61221f565b81810360408301526124a9818d6123f4565b905081810360608301526124bd818c612266565b905081810360808301526124d1818b612266565b90506124e060a083018a612210565b6124ed60c0830189612210565b6124fa60e0830188612210565b612508610100830187612210565b612516610120830186612210565b612524610140830185612467565b612532610160830184612467565b9d9c50505050505050505050505050565b5f806040838503121561255957612558612045565b5b5f612566858286016121d1565b9250506020612577858286016121d1565b9150509250929050565b5f610180820190506125955f83018f612210565b6125a2602083018e61221f565b81810360408301526125b4818d6123f4565b905081810360608301526125c8818c612266565b905081810360808301526125dc818b612266565b90506125eb60a083018a612210565b6125f860c0830189612210565b61260560e0830188612210565b612613610100830187612210565b612621610120830186612210565b61262f610140830185612210565b61263d610160830184612210565b9d9c50505050505050505050505050565b5f80fd5b7f4e487b71000000000000000000000000000000000000000000000000000000005f52604160045260245ffd5b61268882612256565b810181811067ffffffffffffffff821117156126a7576126a6612652565b5b80604052505050565b5f6126b961203c565b90506126c5828261267f565b919050565b5f67ffffffffffffffff8211156126e4576126e3612652565b5b602082029050602081019050919050565b5f80fd5b5f80fd5b5f67ffffffffffffffff82111561271757612716612652565b5b61272082612256565b9050602081019050919050565b828183375f83830152505050565b5f61274d612748846126fd565b6126b0565b905082815260208101848484011115612769576127686126f9565b5b61277484828561272d565b509392505050565b5f82601f8301126127905761278f61264e565b5b81356127a084826020860161273b565b91505092915050565b5f6127bb6127b6846126ca565b6126b0565b905080838252602082019050602084028301858111156127de576127dd6126f5565b5b835b8181101561282557803567ffffffffffffffff8111156128035761280261264e565b5b808601612810898261277c565b855260208501945050506020810190506127e0565b5050509392505050565b5f82601f8301126128435761284261264e565b5b81356128538482602086016127a9565b91505092915050565b612865816120fb565b811461286f575f80fd5b50565b5f813590506128808161285c565b92915050565b5f805f805f805f805f6101208a8c0312156128a4576128a3612045565b5b5f8a013567ffffffffffffffff8111156128c1576128c0612049565b5b6128cd8c828d0161282f565b99505060208a013567ffffffffffffffff8111156128ee576128ed612049565b5b6128fa8c828d0161277c565b98505060408a013567ffffffffffffffff81111561291b5761291a612049565b5b6129278c828d0161277c565b97505060606129388c828d016121d1565b96505060806129498c828d016121d1565b95505060a061295a8c828d016121d1565b94505060c061296b8c828d016121d1565b93505060e061297c8c828d01612872565b92505061010061298e8c828d01612872565b9150509295985092959850929598565b5f80604083850312156129b4576129b3612045565b5b5f6129c185828601612093565b92505060206129d2858286016121d1565b9150509250929050565b5f6020820190506129ef5f830184612467565b92915050565b5f61018082019050612a095f83018f612210565b612a16602083018e61221f565b8181036040830152612a28818d612266565b90508181036060830152612a3c818c612266565b9050612a4b608083018b612210565b612a5860a083018a612210565b612a6560c0830189612210565b612a7260e0830188612210565b612a80610100830187612210565b612a8e610120830186612467565b612a9c610140830185612467565b612aaa610160830184612210565b9d9c50505050505050505050505050565b5f81519050919050565b5f82825260208201905092915050565b5f819050602082019050919050565b612aed816121b2565b82525050565b612afc8161206c565b82525050565b5f82825260208201905092915050565b5f612b1c82612364565b612b268185612b02565b935083602082028501612b388561237e565b805f5b85811015612b735784840389528151612b5485826123d5565b9450612b5f836123e8565b925060208a01995050600181019050612b3b565b50829750879550505050505092915050565b5f6101a083015f830151612b9b5f860182612ae4565b506020830151612bae6020860182612af3565b5060408301518482036040860152612bc68282612b12565b91505060608301518482036060860152612be0828261239d565b91505060808301518482036080860152612bfa828261239d565b91505060a0830151612c0f60a0860182612ae4565b5060c0830151612c2260c0860182612ae4565b5060e0830151612c3560e0860182612ae4565b50610100830151612c4a610100860182612ae4565b50610120830151612c5f610120860182612ae4565b50610140830151612c74610140860182612104565b50610160830151612c89610160860182612104565b50610180830151612c9e610180860182612ae4565b508091505092915050565b5f612cb48383612b85565b905092915050565b5f602082019050919050565b5f612cd282612abb565b612cdc8185612ac5565b935083602082028501612cee85612ad5565b805f5b85811015612d295784840389528151612d0a8582612ca9565b9450612d1583612cbc565b925060208a01995050600181019050612cf1565b50829750879550505050505092915050565b5f6020820190508181035f830152612d538184612cc8565b905092915050565b5f81519050919050565b5f82825260208201905092915050565b5f819050602082019050919050565b5f6101a083015f830151612d9a5f860182612ae4565b506020830151612dad6020860182612af3565b5060408301518482036040860152612dc58282612b12565b91505060608301518482036060860152612ddf828261239d565b91505060808301518482036080860152612df9828261239d565b91505060a0830151612e0e60a0860182612ae4565b5060c0830151612e2160c0860182612ae4565b5060e0830151612e3460e0860182612ae4565b50610100830151612e49610100860182612ae4565b50610120830151612e5e610120860182612ae4565b50610140830151612e73610140860182612ae4565b50610160830151612e88610160860182612ae4565b50610180830151612e9d610180860182612ae4565b508091505092915050565b5f612eb38383612d84565b905092915050565b5f602082019050919050565b5f612ed182612d5b565b612edb8185612d65565b935083602082028501612eed85612d75565b805f5b85811015612f285784840389528151612f098582612ea8565b9450612f1483612ebb565b925060208a01995050600181019050612ef0565b50829750879550505050505092915050565b5f6020820190508181035f830152612f528184612ec7565b905092915050565b5f805f805f805f805f6101208a8c031215612f7857612f77612045565b5b5f8a013567ffffffffffffffff811115612f9557612f94612049565b5b612fa18c828d0161282f565b99505060208a013567ffffffffffffffff811115612fc257612fc1612049565b5b612fce8c828d0161277c565b98505060408a013567ffffffffffffffff811115612fef57612fee612049565b5b612ffb8c828d0161277c565b975050606061300c8c828d016121d1565b965050608061301d8c828d016121d1565b95505060a061302e8c828d016121d1565b94505060c061303f8c828d016121d1565b93505060e06130508c828d016121d1565b9250506101006130628c828d016121d1565b9150509295985092959850929598565b7f4e487b71000000000000000000000000000000000000000000000000000000005f52602260045260245ffd5b5f60028204905060018216806130b657607f821691505b6020821081036130c9576130c8613072565b5b50919050565b7f496e646578206f7574206f6620626f756e647320666f722067656e6572616c005f82015250565b5f613103601f83612238565b915061310e826130cf565b602082019050919050565b5f6020820190508181035f830152613130816130f7565b9050919050565b7f4e487b71000000000000000000000000000000000000000000000000000000005f52603260045260245ffd5b7f47656e6572616c41727469636c6520696e646578206f7574206f662072616e675f8201527f6500000000000000000000000000000000000000000000000000000000000000602082015250565b5f6131be602183612238565b91506131c982613164565b604082019050919050565b5f6020820190508181035f8301526131eb816131b2565b9050919050565b7f4e487b71000000000000000000000000000000000000000000000000000000005f52601160045260245ffd5b5f613229826121b2565b9150613234836121b2565b925082820190508082111561324c5761324b6131f2565b5b92915050565b5f61325c826121b2565b9150613267836121b2565b9250828202613275816121b2565b9150828204841483151761328c5761328b6131f2565b5b5092915050565b7f4e487b71000000000000000000000000000000000000000000000000000000005f52601260045260245ffd5b5f6132ca826121b2565b91506132d5836121b2565b9250826132e5576132e4613293565b5b828204905092915050565b7f496e646578206f7574206f6620626f756e647320666f722073746f636b7300005f82015250565b5f613324601e83612238565b915061332f826132f0565b602082019050919050565b5f6020820190508181035f83015261335181613318565b9050919050565b5f819050815f5260205f209050919050565b5f6020601f8301049050919050565b5f82821b905092915050565b5f600883026133b47fffffffffffffffffffffffffffffffffffffffffffffffffffffffffffffffff82613379565b6133be8683613379565b95508019841693508086168417925050509392505050565b5f819050919050565b5f6133f96133f46133ef846121b2565b6133d6565b6121b2565b9050919050565b5f819050919050565b613412836133df565b61342661341e82613400565b848454613385565b825550505050565b5f90565b61343a61342e565b613445818484613409565b505050565b5b818110156134685761345d5f82613432565b60018101905061344b565b5050565b601f8211156134ad5761347e81613358565b6134878461336a565b81016020851015613496578190505b6134aa6134a28561336a565b83018261344a565b50505b505050565b5f82821c905092915050565b5f6134cd5f19846008026134b2565b1980831691505092915050565b5f6134e583836134be565b9150826002028217905092915050565b6134fe8261222e565b67ffffffffffffffff81111561351757613516612652565b5b613521825461309f565b61352c82828561346c565b5f60209050601f83116001811461355d575f841561354b578287015190505b61355585826134da565b8655506135bc565b601f19841661356b86613358565b5f5b828110156135925784890151825560018201915060208501945060208101905061356d565b868310156135af57848901516135ab601f8916826134be565b8355505b6001600288020188555050505b505050505050565b7f53746f636b41727469636c6520696e646578206f7574206f662072616e6765005f82015250565b5f6135f8601f83612238565b9150613603826135c4565b602082019050919050565b5f6020820190508181035f830152613625816135ec565b9050919050565b7f496e73756666696369656e74207061796d656e740000000000000000000000005f82015250565b5f613660601483612238565b915061366b8261362c565b602082019050919050565b5f6020820190508181035f83015261368d81613654565b905091905056fea2646970667358221220457dbc0de7838c6d95dcd96a40eb37466611731504719640265d5fb71804357064736f6c634300081a0033",
  "immutableReferences": {},
  "source": "// SPDX-License-Identifier: MIT\r\npragma solidity ^0.8.0;\r\n\r\ncontract ArticleStorage {\r\n    struct StockArticle {\r\n        uint index;\r\n        address owner;\r\n        string[] tags;\r\n        string image;\r\n        string content;\r\n        uint256 visibleWords;\r\n        uint256 price;\r\n        uint256 dateUploaded;\r\n        uint256 aiRating;\r\n        uint256 userRating;\r\n        uint256 startDate;\r\n        uint256 endDate;\r\n        uint256 noOfUserRate;\r\n    }\r\n\r\n    struct GeneralArticle {\r\n        uint index;\r\n        address owner;\r\n        string[] tags;\r\n        string image;\r\n        string content;\r\n        uint256 visibleWords;\r\n        uint256 price;\r\n        uint256 dateUploaded;\r\n        uint256 aiRating;\r\n        uint256 userRating;\r\n        int256 latitude;\r\n        int256 longitude;\r\n        uint256 noOfUserRate;\r\n    }\r\n\r\n    StockArticle[] public stocks;\r\n    GeneralArticle[] public general;\r\n\r\n    mapping (address => int[]) public stockopt;\r\n    mapping (address => int[]) public Generalopt;\r\n\r\n    function setStockUserRating(uint index, uint256 rating) public {\r\n        require(index < stocks.length, \"StockArticle index out of range\");\r\n        stocks[index].userRating = (stocks[index].userRating* stocks[index].noOfUserRate + rating ) / (stocks[index].noOfUserRate+1);\r\n        stocks[index].noOfUserRate += 1; \r\n    }\r\n\r\n    // Function to set userRating for GeneralArticle by index\r\n    function setGeneralUserRating(uint index, uint256 rating) public {\r\n        require(index < general.length, \"GeneralArticle index out of range\");\r\n        general[index].userRating = (general[index].userRating* general[index].noOfUserRate + rating ) / (general[index].noOfUserRate+1) ;\r\n        general[index].noOfUserRate += 1; \r\n    }\r\n\r\n    function storeStockArticle(\r\n        string[] memory _tags, \r\n        string memory _image ,\r\n        string memory _content, \r\n        uint256 _visibleWords, \r\n        uint256 _price, \r\n        uint256 _aiRating, \r\n        uint256 _userRating, \r\n        uint256 _startDate,\r\n        uint256 _endDate\r\n    ) public {\r\n\r\n        StockArticle memory newStockArticle = StockArticle({\r\n            index: stocks.length,\r\n            owner: msg.sender,\r\n            tags: _tags,\r\n            image: _image,\r\n            content: _content,\r\n            visibleWords: _visibleWords,\r\n            price: _price,\r\n            dateUploaded: block.timestamp,\r\n            aiRating: _aiRating,\r\n            userRating: _userRating,\r\n            startDate: _startDate,\r\n            endDate: _endDate,\r\n            noOfUserRate: 0\r\n        });\r\n\r\n        stocks.push(newStockArticle);\r\n        stockopt[msg.sender].push(int(newStockArticle.index));\r\n    }\r\n\r\n    function storeGeneralArticle(\r\n        string[] memory _tags,\r\n        string memory _image, \r\n        string memory _content, \r\n        uint256 _visibleWords, \r\n        uint256 _price, \r\n        uint256 _aiRating, \r\n        uint256 _userRating, \r\n        int256 _latitude,\r\n        int256 _longitude\r\n    ) public {\r\n        GeneralArticle memory newGeneralArticle = GeneralArticle({\r\n            index: general.length,\r\n            owner: msg.sender,\r\n            tags: _tags,\r\n            image: _image,\r\n            content: _content,\r\n            visibleWords: _visibleWords,\r\n            price: _price,\r\n            dateUploaded: block.timestamp,\r\n            aiRating: _aiRating,\r\n            userRating: _userRating,\r\n            latitude: _latitude,\r\n            longitude: _longitude,\r\n            noOfUserRate: 0\r\n        });\r\n        \r\n        general.push(newGeneralArticle);\r\n        Generalopt[msg.sender].push(int(newGeneralArticle.index));\r\n    }\r\n\r\n    function getStockArticle(uint256 index) public view returns (\r\n        uint,\r\n        address, \r\n        string[] memory, \r\n        string memory,\r\n        string memory, \r\n        uint256, \r\n        uint256, \r\n        uint256, \r\n        uint256, \r\n        uint256, \r\n        uint256,\r\n        uint256\r\n    ) {\r\n        require(index < stocks.length, \"Index out of bounds for stocks\");\r\n        StockArticle memory article = stocks[index];\r\n        return (\r\n            article.index,\r\n            article.owner, \r\n            article.tags, \r\n            article.image,\r\n            article.content, \r\n            article.visibleWords, \r\n            article.price, \r\n            article.dateUploaded, \r\n            article.aiRating, \r\n            article.userRating,\r\n            article.startDate,\r\n            article.endDate\r\n        );\r\n    }\r\n\r\n    function getGeneralArticle(uint256 index) public view returns (\r\n        uint,\r\n        address, \r\n        string[] memory, \r\n        string memory,\r\n        string memory, \r\n        uint256, \r\n        uint256, \r\n        uint256, \r\n        uint256, \r\n        uint256,\r\n        int256,\r\n        int256\r\n    ) {\r\n        require(index < general.length, \"Index out of bounds for general\");\r\n        GeneralArticle memory article = general[index];\r\n        return (\r\n            article.index,\r\n            article.owner, \r\n            article.tags, \r\n            article.image,\r\n            article.content, \r\n            article.visibleWords, \r\n            article.price, \r\n            article.dateUploaded, \r\n            article.aiRating, \r\n            article.userRating,\r\n            article.latitude,\r\n            article.longitude\r\n        );\r\n    }\r\n\r\n    function payForStockArticle(uint256 index) public payable {\r\n        require(index < stocks.length, \"Index out of bounds for stocks\");\r\n        StockArticle storage article = stocks[index];\r\n\r\n        require(msg.value >= article.price, \"Insufficient payment\");\r\n\r\n        address payable owner = payable(article.owner);\r\n        owner.transfer(article.price);\r\n\r\n        stockopt[msg.sender].push(int(index));\r\n    }\r\n\r\n\r\n    function payForGeneralArticle(uint256 index) public payable {\r\n        require(index < general.length, \"Index out of bounds for general\");\r\n        GeneralArticle storage article = general[index];\r\n\r\n        require(msg.value >= article.price, \"Insufficient payment\");\r\n\r\n        address payable owner = payable(article.owner);\r\n        owner.transfer(article.price);\r\n\r\n        Generalopt[msg.sender].push(int(index));\r\n    }\r\n\r\n    function getStockOpt(address user) public view returns (int[] memory) {\r\n        return stockopt[user];\r\n    }\r\n\r\n    function getGeneralOpt(address user) public view returns (int[] memory) {\r\n        return Generalopt[user];\r\n    }\r\n\r\n    function getAllStockArticles() public view returns (StockArticle[] memory) {\r\n        return stocks;\r\n    }\r\n\r\n    function getAllGeneralArticles() public view returns (GeneralArticle[] memory) {\r\n        return general;\r\n    }\r\n}\r\n",
  "sourcePath": "E:\\website\\Bitcoin-games\\Web3\\contracts\\mainScript.sol",
  "compiler": {
    "name": "solc",
    "version": "0.8.26+commit.8a97fa7a.Emscripten.clang"
  },
  "schemaVersion": "3.4.16",
  "updatedAt": "2024-07-11T04:51:57.239Z",
  "devdoc": {
    "kind": "dev",
    "methods": {},
    "version": 1
  },
  "userdoc": {
    "kind": "user",
    "methods": {},
    "version": 1
  }
}