{
  "contractName": "UserProfile",
  "abi": [
    {
      "inputs": [
        {
          "internalType": "string",
          "name": "_backgroundImageLink",
          "type": "string"
        },
        {
          "internalType": "string",
          "name": "_profilePicLink",
          "type": "string"
        },
        {
          "internalType": "string",
          "name": "_about",
          "type": "string"
        },
        {
          "internalType": "uint256",
          "name": "_moneySpent",
          "type": "uint256"
        },
        {
          "internalType": "uint256",
          "name": "_moneyGained",
          "type": "uint256"
        },
        {
          "internalType": "uint256",
          "name": "_totalTransactions",
          "type": "uint256"
        },
        {
          "internalType": "string",
          "name": "_userTag",
          "type": "string"
        }
      ],
      "name": "setUserProfile",
      "outputs": [],
      "stateMutability": "nonpayable",
      "type": "function"
    },
    {
      "inputs": [
        {
          "internalType": "address",
          "name": "_userAddress",
          "type": "address"
        }
      ],
      "name": "getUserProfile",
      "outputs": [
        {
          "internalType": "string",
          "name": "",
          "type": "string"
        },
        {
          "internalType": "string",
          "name": "",
          "type": "string"
        },
        {
          "internalType": "string",
          "name": "",
          "type": "string"
        },
        {
          "internalType": "uint256",
          "name": "",
          "type": "uint256"
        },
        {
          "internalType": "uint256",
          "name": "",
          "type": "uint256"
        },
        {
          "internalType": "uint256",
          "name": "",
          "type": "uint256"
        },
        {
          "internalType": "string",
          "name": "",
          "type": "string"
        }
      ],
      "stateMutability": "view",
      "type": "function"
    }
  ],
  "bytecode": "0x6080604052348015600e575f80fd5b50610ae78061001c5f395ff3fe608060405234801561000f575f80fd5b5060043610610034575f3560e01c80632c89ea7514610038578063987ee15614610054575b5f80fd5b610052600480360381019061004d919061055e565b61008a565b005b61006e600480360381019061006991906106c5565b610135565b604051610081979695949392919061075f565b60405180910390f35b5f805f3373ffffffffffffffffffffffffffffffffffffffff1673ffffffffffffffffffffffffffffffffffffffff1681526020019081526020015f20905087815f0190816100d991906109e2565b50868160010190816100eb91906109e2565b50858160020190816100fd91906109e2565b508481600301819055508381600401819055508281600501819055508181600601908161012a91906109e2565b505050505050505050565b60608060605f805f60605f805f8a73ffffffffffffffffffffffffffffffffffffffff1673ffffffffffffffffffffffffffffffffffffffff1681526020019081526020015f209050805f018160010182600201836003015484600401548560050154866006018680546101a890610815565b80601f01602080910402602001604051908101604052809291908181526020018280546101d490610815565b801561021f5780601f106101f65761010080835404028352916020019161021f565b820191905f5260205f20905b81548152906001019060200180831161020257829003601f168201915b5050505050965085805461023290610815565b80601f016020809104026020016040519081016040528092919081815260200182805461025e90610815565b80156102a95780601f10610280576101008083540402835291602001916102a9565b820191905f5260205f20905b81548152906001019060200180831161028c57829003601f168201915b505050505095508480546102bc90610815565b80601f01602080910402602001604051908101604052809291908181526020018280546102e890610815565b80156103335780601f1061030a57610100808354040283529160200191610333565b820191905f5260205f20905b81548152906001019060200180831161031657829003601f168201915b5050505050945080805461034690610815565b80601f016020809104026020016040519081016040528092919081815260200182805461037290610815565b80156103bd5780601f10610394576101008083540402835291602001916103bd565b820191905f5260205f20905b8154815290600101906020018083116103a057829003601f168201915b50505050509050975097509750975097509750975050919395979092949650565b5f604051905090565b5f80fd5b5f80fd5b5f80fd5b5f80fd5b5f601f19601f8301169050919050565b7f4e487b71000000000000000000000000000000000000000000000000000000005f52604160045260245ffd5b61043d826103f7565b810181811067ffffffffffffffff8211171561045c5761045b610407565b5b80604052505050565b5f61046e6103de565b905061047a8282610434565b919050565b5f67ffffffffffffffff82111561049957610498610407565b5b6104a2826103f7565b9050602081019050919050565b828183375f83830152505050565b5f6104cf6104ca8461047f565b610465565b9050828152602081018484840111156104eb576104ea6103f3565b5b6104f68482856104af565b509392505050565b5f82601f830112610512576105116103ef565b5b81356105228482602086016104bd565b91505092915050565b5f819050919050565b61053d8161052b565b8114610547575f80fd5b50565b5f8135905061055881610534565b92915050565b5f805f805f805f60e0888a031215610579576105786103e7565b5b5f88013567ffffffffffffffff811115610596576105956103eb565b5b6105a28a828b016104fe565b975050602088013567ffffffffffffffff8111156105c3576105c26103eb565b5b6105cf8a828b016104fe565b965050604088013567ffffffffffffffff8111156105f0576105ef6103eb565b5b6105fc8a828b016104fe565b955050606061060d8a828b0161054a565b945050608061061e8a828b0161054a565b93505060a061062f8a828b0161054a565b92505060c088013567ffffffffffffffff8111156106505761064f6103eb565b5b61065c8a828b016104fe565b91505092959891949750929550565b5f73ffffffffffffffffffffffffffffffffffffffff82169050919050565b5f6106948261066b565b9050919050565b6106a48161068a565b81146106ae575f80fd5b50565b5f813590506106bf8161069b565b92915050565b5f602082840312156106da576106d96103e7565b5b5f6106e7848285016106b1565b91505092915050565b5f81519050919050565b5f82825260208201905092915050565b8281835e5f83830152505050565b5f610722826106f0565b61072c81856106fa565b935061073c81856020860161070a565b610745816103f7565b840191505092915050565b6107598161052b565b82525050565b5f60e0820190508181035f830152610777818a610718565b9050818103602083015261078b8189610718565b9050818103604083015261079f8188610718565b90506107ae6060830187610750565b6107bb6080830186610750565b6107c860a0830185610750565b81810360c08301526107da8184610718565b905098975050505050505050565b7f4e487b71000000000000000000000000000000000000000000000000000000005f52602260045260245ffd5b5f600282049050600182168061082c57607f821691505b60208210810361083f5761083e6107e8565b5b50919050565b5f819050815f5260205f209050919050565b5f6020601f8301049050919050565b5f82821b905092915050565b5f600883026108a17fffffffffffffffffffffffffffffffffffffffffffffffffffffffffffffffff82610866565b6108ab8683610866565b95508019841693508086168417925050509392505050565b5f819050919050565b5f6108e66108e16108dc8461052b565b6108c3565b61052b565b9050919050565b5f819050919050565b6108ff836108cc565b61091361090b826108ed565b848454610872565b825550505050565b5f90565b61092761091b565b6109328184846108f6565b505050565b5b818110156109555761094a5f8261091f565b600181019050610938565b5050565b601f82111561099a5761096b81610845565b61097484610857565b81016020851015610983578190505b61099761098f85610857565b830182610937565b50505b505050565b5f82821c905092915050565b5f6109ba5f198460080261099f565b1980831691505092915050565b5f6109d283836109ab565b9150826002028217905092915050565b6109eb826106f0565b67ffffffffffffffff811115610a0457610a03610407565b5b610a0e8254610815565b610a19828285610959565b5f60209050601f831160018114610a4a575f8415610a38578287015190505b610a4285826109c7565b865550610aa9565b601f198416610a5886610845565b5f5b82811015610a7f57848901518255600182019150602085019450602081019050610a5a565b86831015610a9c5784890151610a98601f8916826109ab565b8355505b6001600288020188555050505b50505050505056fea2646970667358221220b622ccdcc1480cdd79e7a54cd643ed078905bb1fe5eb8c978bed905eaeb4874664736f6c634300081a0033",
  "immutableReferences": {},
  "source": "// SPDX-License-Identifier: MIT\r\npragma solidity ^0.8.0;\r\n\r\ncontract UserProfile {\r\n\r\n    struct User {\r\n        string backgroundImageLink;\r\n        string profilePicLink;\r\n        string about;\r\n        uint256 moneySpent;\r\n        uint256 moneyGained;\r\n        uint256 totalTransactions;\r\n        string userTag;\r\n    }\r\n\r\n    mapping(address => User) private users;\r\n\r\n    function setUserProfile(\r\n        string memory _backgroundImageLink,\r\n        string memory _profilePicLink,\r\n        string memory _about,\r\n        uint256 _moneySpent,\r\n        uint256 _moneyGained,\r\n        uint256 _totalTransactions,\r\n        string memory _userTag\r\n    ) public {\r\n        User storage user = users[msg.sender];\r\n        user.backgroundImageLink = _backgroundImageLink;\r\n        user.profilePicLink = _profilePicLink;\r\n        user.about = _about;\r\n        user.moneySpent = _moneySpent;\r\n        user.moneyGained = _moneyGained;\r\n        user.totalTransactions = _totalTransactions;\r\n        user.userTag = _userTag;\r\n    }\r\n\r\n    function getUserProfile(address _userAddress) public view returns (\r\n        string memory,\r\n        string memory,\r\n        string memory,\r\n        uint256,\r\n        uint256,\r\n        uint256,\r\n        string memory\r\n    ) {\r\n        User storage user = users[_userAddress];\r\n        return (\r\n            user.backgroundImageLink,\r\n            user.profilePicLink,\r\n            user.about,\r\n            user.moneySpent,\r\n            user.moneyGained,\r\n            user.totalTransactions,\r\n            user.userTag\r\n        );\r\n    }\r\n}\r\n",
  "sourcePath": "E:\\website\\Bitcoin-games\\Web3\\contracts\\users.sol",
  "compiler": {
    "name": "solc",
    "version": "0.8.26+commit.8a97fa7a.Emscripten.clang"
  },
  "schemaVersion": "3.4.16",
  "updatedAt": "2024-07-11T04:51:57.265Z",
  "devdoc": {
    "kind": "dev",
    "methods": {},
    "version": 1
  },
  "userdoc": {
    "kind": "user",
    "methods": {},
    "version": 1
  }
}